{
  "_format": "hh-sol-artifact-1",
  "contractName": "VeriFact",
  "sourceName": "contracts/VeriFact.sol",
  "abi": [
    {
      "inputs": [],
      "stateMutability": "nonpayable",
      "type": "constructor"
    },
    {
      "anonymous": false,
      "inputs": [
        {
          "indexed": false,
          "internalType": "address",
          "name": "manufacturer",
          "type": "address"
        }
      ],
      "name": "ManufacturerAdded",
      "type": "event"
    },
    {
      "anonymous": false,
      "inputs": [
        {
          "indexed": false,
          "internalType": "address",
          "name": "manufacturer",
          "type": "address"
        }
      ],
      "name": "ManufacturerRemoved",
      "type": "event"
    },
    {
      "anonymous": false,
      "inputs": [
        {
          "indexed": false,
          "internalType": "string",
          "name": "productId",
          "type": "string"
        },
        {
          "indexed": false,
          "internalType": "address",
          "name": "manufacturer",
          "type": "address"
        },
        {
          "indexed": false,
          "internalType": "uint256",
          "name": "timestamp",
          "type": "uint256"
        }
      ],
      "name": "ProductAdded",
      "type": "event"
    },
    {
      "anonymous": false,
      "inputs": [
        {
          "indexed": false,
          "internalType": "string",
          "name": "productId",
          "type": "string"
        },
        {
          "indexed": false,
          "internalType": "address",
          "name": "from",
          "type": "address"
        },
        {
          "indexed": false,
          "internalType": "address",
          "name": "to",
          "type": "address"
        },
        {
          "indexed": false,
          "internalType": "uint256",
          "name": "price",
          "type": "uint256"
        },
        {
          "indexed": false,
          "internalType": "uint256",
          "name": "timestamp",
          "type": "uint256"
        }
      ],
      "name": "ProductTransferred",
      "type": "event"
    },
    {
      "inputs": [
        {
          "internalType": "address",
          "name": "manufacturerAddress",
          "type": "address"
        }
      ],
      "name": "addManufacturer",
      "outputs": [],
      "stateMutability": "nonpayable",
      "type": "function"
    },
    {
      "inputs": [
        {
          "internalType": "string",
          "name": "productId",
          "type": "string"
        },
        {
          "internalType": "string",
          "name": "details",
          "type": "string"
        },
        {
          "internalType": "uint256",
          "name": "initialPrice",
          "type": "uint256"
        },
        {
          "internalType": "address",
          "name": "initialProductOwner",
          "type": "address"
        }
      ],
      "name": "addProduct",
      "outputs": [],
      "stateMutability": "nonpayable",
      "type": "function"
    },
    {
      "inputs": [],
      "name": "contractOwner",
      "outputs": [
        {
          "internalType": "address",
          "name": "",
          "type": "address"
        }
      ],
      "stateMutability": "view",
      "type": "function"
    },
    {
      "inputs": [
        {
          "internalType": "string",
          "name": "productId",
          "type": "string"
        },
        {
          "internalType": "address",
          "name": "newProductOwner",
          "type": "address"
        }
      ],
      "name": "emergencyTransfer",
      "outputs": [],
      "stateMutability": "nonpayable",
      "type": "function"
    },
    {
      "inputs": [
        {
          "internalType": "string",
          "name": "productId",
          "type": "string"
        }
      ],
      "name": "getProduct",
      "outputs": [
        {
          "components": [
            {
              "internalType": "string",
              "name": "productId",
              "type": "string"
            },
            {
              "internalType": "string",
              "name": "details",
              "type": "string"
            },
            {
              "internalType": "uint256",
              "name": "initialPrice",
              "type": "uint256"
            },
            {
              "internalType": "address",
              "name": "currentProductOwner",
              "type": "address"
            },
            {
              "internalType": "uint256",
              "name": "createdAt",
              "type": "uint256"
            },
            {
              "internalType": "bool",
              "name": "isActive",
              "type": "bool"
            }
          ],
          "internalType": "struct VeriFact.Product",
          "name": "",
          "type": "tuple"
        }
      ],
      "stateMutability": "view",
      "type": "function"
    },
    {
      "inputs": [
        {
          "internalType": "address",
          "name": "ownerAddress",
          "type": "address"
        }
      ],
      "name": "getProductsByOwner",
      "outputs": [
        {
          "internalType": "string[]",
          "name": "",
          "type": "string[]"
        }
      ],
      "stateMutability": "view",
      "type": "function"
    },
    {
      "inputs": [
        {
          "internalType": "string",
          "name": "productId",
          "type": "string"
        }
      ],
      "name": "getTransferHistory",
      "outputs": [
        {
          "components": [
            {
              "internalType": "address",
              "name": "from",
              "type": "address"
            },
            {
              "internalType": "address",
              "name": "to",
              "type": "address"
            },
            {
              "internalType": "uint256",
              "name": "price",
              "type": "uint256"
            },
            {
              "internalType": "uint256",
              "name": "timestamp",
              "type": "uint256"
            }
          ],
          "internalType": "struct VeriFact.TransferHistory[]",
          "name": "",
          "type": "tuple[]"
        }
      ],
      "stateMutability": "view",
      "type": "function"
    },
    {
      "inputs": [
        {
          "internalType": "address",
          "name": "",
          "type": "address"
        }
      ],
      "name": "manufacturers",
      "outputs": [
        {
          "internalType": "bool",
          "name": "",
          "type": "bool"
        }
      ],
      "stateMutability": "view",
      "type": "function"
    },
    {
      "inputs": [
        {
          "internalType": "string",
          "name": "",
          "type": "string"
        }
      ],
      "name": "products",
      "outputs": [
        {
          "internalType": "string",
          "name": "productId",
          "type": "string"
        },
        {
          "internalType": "string",
          "name": "details",
          "type": "string"
        },
        {
          "internalType": "uint256",
          "name": "initialPrice",
          "type": "uint256"
        },
        {
          "internalType": "address",
          "name": "currentProductOwner",
          "type": "address"
        },
        {
          "internalType": "uint256",
          "name": "createdAt",
          "type": "uint256"
        },
        {
          "internalType": "bool",
          "name": "isActive",
          "type": "bool"
        }
      ],
      "stateMutability": "view",
      "type": "function"
    },
    {
      "inputs": [
        {
          "internalType": "address",
          "name": "manufacturerAddress",
          "type": "address"
        }
      ],
      "name": "removeManufacturer",
      "outputs": [],
      "stateMutability": "nonpayable",
      "type": "function"
    },
    {
      "inputs": [
        {
          "internalType": "string",
          "name": "productId",
          "type": "string"
        }
      ],
      "name": "toggleProductStatus",
      "outputs": [],
      "stateMutability": "nonpayable",
      "type": "function"
    },
    {
      "inputs": [
        {
          "internalType": "string",
          "name": "",
          "type": "string"
        },
        {
          "internalType": "uint256",
          "name": "",
          "type": "uint256"
        }
      ],
      "name": "transferHistories",
      "outputs": [
        {
          "internalType": "address",
          "name": "from",
          "type": "address"
        },
        {
          "internalType": "address",
          "name": "to",
          "type": "address"
        },
        {
          "internalType": "uint256",
          "name": "price",
          "type": "uint256"
        },
        {
          "internalType": "uint256",
          "name": "timestamp",
          "type": "uint256"
        }
      ],
      "stateMutability": "view",
      "type": "function"
    },
    {
      "inputs": [
        {
          "internalType": "string",
          "name": "productId",
          "type": "string"
        },
        {
          "internalType": "address",
          "name": "newProductOwner",
          "type": "address"
        },
        {
          "internalType": "uint256",
          "name": "price",
          "type": "uint256"
        }
      ],
      "name": "transferProduct",
      "outputs": [],
      "stateMutability": "nonpayable",
      "type": "function"
    },
    {
      "inputs": [
        {
          "internalType": "string",
          "name": "productId",
          "type": "string"
        },
        {
          "internalType": "string",
          "name": "newDetails",
          "type": "string"
        }
      ],
      "name": "updateProductDetails",
      "outputs": [],
      "stateMutability": "nonpayable",
      "type": "function"
    },
    {
      "inputs": [
        {
          "internalType": "address",
          "name": "",
          "type": "address"
        },
        {
          "internalType": "uint256",
          "name": "",
          "type": "uint256"
        }
      ],
      "name": "userProducts",
      "outputs": [
        {
          "internalType": "string",
          "name": "",
          "type": "string"
        }
      ],
      "stateMutability": "view",
      "type": "function"
    },
    {
      "inputs": [
        {
          "internalType": "string",
          "name": "productId",
          "type": "string"
        }
      ],
      "name": "verifyProduct",
      "outputs": [
        {
          "internalType": "bool",
          "name": "exists",
          "type": "bool"
        },
        {
          "internalType": "address",
          "name": "currentOwner",
          "type": "address"
        },
        {
          "internalType": "uint256",
          "name": "transferCount",
          "type": "uint256"
        }
      ],
      "stateMutability": "view",
      "type": "function"
    }
  ],
  "bytecode": "0x6080604052348015600f57600080fd5b50336000806101000a81548173ffffffffffffffffffffffffffffffffffffffff021916908373ffffffffffffffffffffffffffffffffffffffff1602179055506001600460003373ffffffffffffffffffffffffffffffffffffffff1673ffffffffffffffffffffffffffffffffffffffff16815260200190815260200160002060006101000a81548160ff02191690831515021790555061354e806100b76000396000f3fe608060405234801561001057600080fd5b50600436106101005760003560e01c80636b5eb09c11610097578063ba94a92411610066578063ba94a924146102ff578063bf04f8b61461031b578063ce606ee014610337578063d2d38fad1461035557610100565b80636b5eb09c1461023a5780637b2cca7c1461026a57806392efc4531461029a578063b0bb3273146102cc57610100565b80633daaa7e9116100d35780633daaa7e9146101b65780635f8a5afa146101d257806368111cce146101ee5780636a75323f1461021e57610100565b80630186a423146101055780630fecef481461013a578063158a74471461016a5780633d52788314610186575b600080fd5b61011f600480360381019061011a9190612282565b610371565b604051610131969594939291906123bf565b60405180910390f35b610154600480360381019061014f919061245a565b610500565b6040516101619190612593565b60405180910390f35b610184600480360381019061017f91906125b5565b610618565b005b6101a0600480360381019061019b9190612659565b61079d565b6040516101ad9190612699565b60405180910390f35b6101d060048036038101906101cb91906126bb565b610856565b005b6101ec60048036038101906101e7919061245a565b610c67565b005b61020860048036038101906102039190612282565b610d87565b60405161021591906127d4565b60405180910390f35b6102386004803603810190610233919061245a565b610f68565b005b610254600480360381019061024f919061245a565b611088565b60405161026191906127f6565b60405180910390f35b610284600480360381019061027f9190612282565b6110a8565b6040516102919190612915565b60405180910390f35b6102b460048036038101906102af9190612282565b6111e5565b6040516102c393929190612937565b60405180910390f35b6102e660048036038101906102e1919061296e565b6113fd565b6040516102f694939291906129ca565b60405180910390f35b61031960048036038101906103149190612a0f565b6114a0565b005b61033560048036038101906103309190612aae565b611938565b005b61033f611d6b565b60405161034c9190612b1d565b60405180910390f35b61036f600480360381019061036a9190612282565b611d8f565b005b6001818051602081018201805184825260208301602085012081835280955050505050506000915090508060000180546103aa90612b67565b80601f01602080910402602001604051908101604052809291908181526020018280546103d690612b67565b80156104235780601f106103f857610100808354040283529160200191610423565b820191906000526020600020905b81548152906001019060200180831161040657829003601f168201915b50505050509080600101805461043890612b67565b80601f016020809104026020016040519081016040528092919081815260200182805461046490612b67565b80156104b15780601f10610486576101008083540402835291602001916104b1565b820191906000526020600020905b81548152906001019060200180831161049457829003601f168201915b5050505050908060020154908060030160009054906101000a900473ffffffffffffffffffffffffffffffffffffffff16908060040154908060050160009054906101000a900460ff16905086565b6060600360008373ffffffffffffffffffffffffffffffffffffffff1673ffffffffffffffffffffffffffffffffffffffff168152602001908152602001600020805480602002602001604051908101604052809291908181526020016000905b8282101561060d57838290600052602060002001805461058090612b67565b80601f01602080910402602001604051908101604052809291908181526020018280546105ac90612b67565b80156105f95780601f106105ce576101008083540402835291602001916105f9565b820191906000526020600020905b8154815290600101906020018083116105dc57829003601f168201915b505050505081526020019060010190610561565b505050509050919050565b600460003373ffffffffffffffffffffffffffffffffffffffff1673ffffffffffffffffffffffffffffffffffffffff16815260200190815260200160002060009054906101000a900460ff16806106bb575060008054906101000a900473ffffffffffffffffffffffffffffffffffffffff1673ffffffffffffffffffffffffffffffffffffffff163373ffffffffffffffffffffffffffffffffffffffff16145b6106fa576040517f08c379a00000000000000000000000000000000000000000000000000000000081526004016106f190612be4565b60405180910390fd5b600060018360405161070c9190612c40565b9081526020016040518091039020600001805461072890612b67565b90501161076a576040517f08c379a000000000000000000000000000000000000000000000000000000000815260040161076190612ca3565b60405180910390fd5b8060018360405161077b9190612c40565b908152602001604051809103902060010190816107989190612e6f565b505050565b600360205281600052604060002081815481106107b957600080fd5b906000526020600020016000915091505080546107d590612b67565b80601f016020809104026020016040519081016040528092919081815260200182805461080190612b67565b801561084e5780601f106108235761010080835404028352916020019161084e565b820191906000526020600020905b81548152906001019060200180831161083157829003601f168201915b505050505081565b60008054906101000a900473ffffffffffffffffffffffffffffffffffffffff1673ffffffffffffffffffffffffffffffffffffffff163373ffffffffffffffffffffffffffffffffffffffff16146108e4576040517f08c379a00000000000000000000000000000000000000000000000000000000081526004016108db90612f8d565b60405180910390fd5b600073ffffffffffffffffffffffffffffffffffffffff168173ffffffffffffffffffffffffffffffffffffffff1603610953576040517f08c379a000000000000000000000000000000000000000000000000000000000815260040161094a90612ff9565b60405180910390fd5b6001826040516109639190612c40565b908152602001604051809103902060050160009054906101000a900460ff166109c1576040517f08c379a00000000000000000000000000000000000000000000000000000000081526004016109b890613065565b60405180910390fd5b60006001836040516109d39190612c40565b908152602001604051809103902060030160009054906101000a900473ffffffffffffffffffffffffffffffffffffffff16905081600184604051610a189190612c40565b908152602001604051809103902060030160006101000a81548173ffffffffffffffffffffffffffffffffffffffff021916908373ffffffffffffffffffffffffffffffffffffffff160217905550600060405180608001604052808373ffffffffffffffffffffffffffffffffffffffff1681526020018473ffffffffffffffffffffffffffffffffffffffff16815260200160008152602001428152509050600284604051610ac99190612c40565b908152602001604051809103902081908060018154018082558091505060019003906000526020600020906004020160009091909190915060008201518160000160006101000a81548173ffffffffffffffffffffffffffffffffffffffff021916908373ffffffffffffffffffffffffffffffffffffffff16021790555060208201518160010160006101000a81548173ffffffffffffffffffffffffffffffffffffffff021916908373ffffffffffffffffffffffffffffffffffffffff16021790555060408201518160020155606082015181600301555050610baf8483611f4c565b600360008473ffffffffffffffffffffffffffffffffffffffff1673ffffffffffffffffffffffffffffffffffffffff16815260200190815260200160002084908060018154018082558091505060019003906000526020600020016000909190919091509081610c209190612e6f565b507f90d24cdf5b8a2a923d5aacf93d3fdd7d1c08b9183d93a983e2f281b9401c2d17848385600042604051610c599594939291906130c0565b60405180910390a150505050565b60008054906101000a900473ffffffffffffffffffffffffffffffffffffffff1673ffffffffffffffffffffffffffffffffffffffff163373ffffffffffffffffffffffffffffffffffffffff1614610cf5576040517f08c379a0000000000000000000000000000000000000000000000000000000008152600401610cec90612f8d565b60405180910390fd5b6001600460008373ffffffffffffffffffffffffffffffffffffffff1673ffffffffffffffffffffffffffffffffffffffff16815260200190815260200160002060006101000a81548160ff0219169083151502179055507f561138658ca49a8540dc70dcfe64c9026c1c5b9344642242dd6562970f9c127881604051610d7c9190612b1d565b60405180910390a150565b610d8f61207d565b600182604051610d9f9190612c40565b90815260200160405180910390206040518060c0016040529081600082018054610dc890612b67565b80601f0160208091040260200160405190810160405280929190818152602001828054610df490612b67565b8015610e415780601f10610e1657610100808354040283529160200191610e41565b820191906000526020600020905b815481529060010190602001808311610e2457829003601f168201915b50505050508152602001600182018054610e5a90612b67565b80601f0160208091040260200160405190810160405280929190818152602001828054610e8690612b67565b8015610ed35780601f10610ea857610100808354040283529160200191610ed3565b820191906000526020600020905b815481529060010190602001808311610eb657829003601f168201915b50505050508152602001600282015481526020016003820160009054906101000a900473ffffffffffffffffffffffffffffffffffffffff1673ffffffffffffffffffffffffffffffffffffffff1673ffffffffffffffffffffffffffffffffffffffff168152602001600482015481526020016005820160009054906101000a900460ff1615151515815250509050919050565b60008054906101000a900473ffffffffffffffffffffffffffffffffffffffff1673ffffffffffffffffffffffffffffffffffffffff163373ffffffffffffffffffffffffffffffffffffffff1614610ff6576040517f08c379a0000000000000000000000000000000000000000000000000000000008152600401610fed90612f8d565b60405180910390fd5b6000600460008373ffffffffffffffffffffffffffffffffffffffff1673ffffffffffffffffffffffffffffffffffffffff16815260200190815260200160002060006101000a81548160ff0219169083151502179055507f2fed5abf6a80d6dfe30b4895481b2fc5d7dce5f8f7b931832f4a2947d5040c7f8160405161107d9190612b1d565b60405180910390a150565b60046020528060005260406000206000915054906101000a900460ff1681565b60606002826040516110ba9190612c40565b9081526020016040518091039020805480602002602001604051908101604052809291908181526020016000905b828210156111da57838290600052602060002090600402016040518060800160405290816000820160009054906101000a900473ffffffffffffffffffffffffffffffffffffffff1673ffffffffffffffffffffffffffffffffffffffff1673ffffffffffffffffffffffffffffffffffffffff1681526020016001820160009054906101000a900473ffffffffffffffffffffffffffffffffffffffff1673ffffffffffffffffffffffffffffffffffffffff1673ffffffffffffffffffffffffffffffffffffffff16815260200160028201548152602001600382015481525050815260200190600101906110e8565b505050509050919050565b6000806000806001856040516111fb9190612c40565b90815260200160405180910390206040518060c001604052908160008201805461122490612b67565b80601f016020809104026020016040519081016040528092919081815260200182805461125090612b67565b801561129d5780601f106112725761010080835404028352916020019161129d565b820191906000526020600020905b81548152906001019060200180831161128057829003601f168201915b505050505081526020016001820180546112b690612b67565b80601f01602080910402602001604051908101604052809291908181526020018280546112e290612b67565b801561132f5780601f106113045761010080835404028352916020019161132f565b820191906000526020600020905b81548152906001019060200180831161131257829003601f168201915b50505050508152602001600282015481526020016003820160009054906101000a900473ffffffffffffffffffffffffffffffffffffffff1673ffffffffffffffffffffffffffffffffffffffff1673ffffffffffffffffffffffffffffffffffffffff168152602001600482015481526020016005820160009054906101000a900460ff16151515158152505090506000816000015151119350806060015192506002856040516113e19190612c40565b9081526020016040518091039020805490509150509193909250565b600282805160208101820180518482526020830160208501208183528095505050505050818154811061142f57600080fd5b9060005260206000209060040201600091509150508060000160009054906101000a900473ffffffffffffffffffffffffffffffffffffffff16908060010160009054906101000a900473ffffffffffffffffffffffffffffffffffffffff16908060020154908060030154905084565b600460003373ffffffffffffffffffffffffffffffffffffffff1673ffffffffffffffffffffffffffffffffffffffff16815260200190815260200160002060009054906101000a900460ff1680611543575060008054906101000a900473ffffffffffffffffffffffffffffffffffffffff1673ffffffffffffffffffffffffffffffffffffffff163373ffffffffffffffffffffffffffffffffffffffff16145b611582576040517f08c379a000000000000000000000000000000000000000000000000000000000815260040161157990612be4565b60405180910390fd5b60006001856040516115949190612c40565b908152602001604051809103902060000180546115b090612b67565b9050146115f2576040517f08c379a00000000000000000000000000000000000000000000000000000000081526004016115e990613166565b60405180910390fd5b60008073ffffffffffffffffffffffffffffffffffffffff168273ffffffffffffffffffffffffffffffffffffffff161461162d578161162f565b335b905060006040518060c001604052808781526020018681526020018581526020018373ffffffffffffffffffffffffffffffffffffffff1681526020014281526020016001151581525090508060018760405161168c9190612c40565b908152602001604051809103902060008201518160000190816116af9190612e6f565b5060208201518160010190816116c59190612e6f565b506040820151816002015560608201518160030160006101000a81548173ffffffffffffffffffffffffffffffffffffffff021916908373ffffffffffffffffffffffffffffffffffffffff1602179055506080820151816004015560a08201518160050160006101000a81548160ff021916908315150217905550905050600360008373ffffffffffffffffffffffffffffffffffffffff1673ffffffffffffffffffffffffffffffffffffffff168152602001908152602001600020869080600181540180825580915050600190039060005260206000200160009091909190915090816117b59190612e6f565b5060006040518060800160405280600073ffffffffffffffffffffffffffffffffffffffff1681526020018473ffffffffffffffffffffffffffffffffffffffff1681526020018681526020014281525090506002876040516118189190612c40565b908152602001604051809103902081908060018154018082558091505060019003906000526020600020906004020160009091909190915060008201518160000160006101000a81548173ffffffffffffffffffffffffffffffffffffffff021916908373ffffffffffffffffffffffffffffffffffffffff16021790555060208201518160010160006101000a81548173ffffffffffffffffffffffffffffffffffffffff021916908373ffffffffffffffffffffffffffffffffffffffff160217905550604082015181600201556060820151816003015550507f2db823d59d5791c86212f51af4b484e835feef7fcfe2d9c8e7bc54f632fe1d8b87334260405161192793929190613186565b60405180910390a150505050505050565b823373ffffffffffffffffffffffffffffffffffffffff166001826040516119609190612c40565b908152602001604051809103902060030160009054906101000a900473ffffffffffffffffffffffffffffffffffffffff1673ffffffffffffffffffffffffffffffffffffffff16146119e8576040517f08c379a00000000000000000000000000000000000000000000000000000000081526004016119df90613210565b60405180910390fd5b600073ffffffffffffffffffffffffffffffffffffffff168373ffffffffffffffffffffffffffffffffffffffff1603611a57576040517f08c379a0000000000000000000000000000000000000000000000000000000008152600401611a4e90612ff9565b60405180910390fd5b600184604051611a679190612c40565b908152602001604051809103902060050160009054906101000a900460ff16611ac5576040517f08c379a0000000000000000000000000000000000000000000000000000000008152600401611abc90613065565b60405180910390fd5b6000600185604051611ad79190612c40565b908152602001604051809103902060030160009054906101000a900473ffffffffffffffffffffffffffffffffffffffff16905083600186604051611b1c9190612c40565b908152602001604051809103902060030160006101000a81548173ffffffffffffffffffffffffffffffffffffffff021916908373ffffffffffffffffffffffffffffffffffffffff160217905550600060405180608001604052808373ffffffffffffffffffffffffffffffffffffffff1681526020018673ffffffffffffffffffffffffffffffffffffffff168152602001858152602001428152509050600286604051611bcc9190612c40565b908152602001604051809103902081908060018154018082558091505060019003906000526020600020906004020160009091909190915060008201518160000160006101000a81548173ffffffffffffffffffffffffffffffffffffffff021916908373ffffffffffffffffffffffffffffffffffffffff16021790555060208201518160010160006101000a81548173ffffffffffffffffffffffffffffffffffffffff021916908373ffffffffffffffffffffffffffffffffffffffff16021790555060408201518160020155606082015181600301555050611cb28683611f4c565b600360008673ffffffffffffffffffffffffffffffffffffffff1673ffffffffffffffffffffffffffffffffffffffff16815260200190815260200160002086908060018154018082558091505060019003906000526020600020016000909190919091509081611d239190612e6f565b507f90d24cdf5b8a2a923d5aacf93d3fdd7d1c08b9183d93a983e2f281b9401c2d178683878742604051611d5b959493929190613230565b60405180910390a1505050505050565b60008054906101000a900473ffffffffffffffffffffffffffffffffffffffff1681565b600460003373ffffffffffffffffffffffffffffffffffffffff1673ffffffffffffffffffffffffffffffffffffffff16815260200190815260200160002060009054906101000a900460ff1680611e32575060008054906101000a900473ffffffffffffffffffffffffffffffffffffffff1673ffffffffffffffffffffffffffffffffffffffff163373ffffffffffffffffffffffffffffffffffffffff16145b611e71576040517f08c379a0000000000000000000000000000000000000000000000000000000008152600401611e6890612be4565b60405180910390fd5b6000600182604051611e839190612c40565b90815260200160405180910390206000018054611e9f90612b67565b905011611ee1576040517f08c379a0000000000000000000000000000000000000000000000000000000008152600401611ed890612ca3565b60405180910390fd5b600181604051611ef19190612c40565b908152602001604051809103902060050160009054906101000a900460ff1615600182604051611f219190612c40565b908152602001604051809103902060050160006101000a81548160ff02191690831515021790555050565b6000600360008373ffffffffffffffffffffffffffffffffffffffff1673ffffffffffffffffffffffffffffffffffffffff168152602001908152602001600020905060008180549050905060005b81811015612076578480519060200120838281548110611fbe57611fbd61328a565b5b90600052602060002001604051611fd5919061335c565b6040518091039020036120695782600183611ff091906133a2565b815481106120015761200061328a565b5b9060005260206000200183828154811061201e5761201d61328a565b5b9060005260206000200190816120349190613401565b5082805480612046576120456134e9565b5b60019003818190600052602060002001600061206291906120cb565b9055612076565b8080600101915050611f9b565b5050505050565b6040518060c00160405280606081526020016060815260200160008152602001600073ffffffffffffffffffffffffffffffffffffffff168152602001600081526020016000151581525090565b5080546120d790612b67565b6000825580601f106120e95750612108565b601f016020900490600052602060002090810190612107919061210b565b5b50565b5b8082111561212457600081600090555060010161210c565b5090565b6000604051905090565b600080fd5b600080fd5b600080fd5b600080fd5b6000601f19601f8301169050919050565b7f4e487b7100000000000000000000000000000000000000000000000000000000600052604160045260246000fd5b61218f82612146565b810181811067ffffffffffffffff821117156121ae576121ad612157565b5b80604052505050565b60006121c1612128565b90506121cd8282612186565b919050565b600067ffffffffffffffff8211156121ed576121ec612157565b5b6121f682612146565b9050602081019050919050565b82818337600083830152505050565b6000612225612220846121d2565b6121b7565b90508281526020810184848401111561224157612240612141565b5b61224c848285612203565b509392505050565b600082601f8301126122695761226861213c565b5b8135612279848260208601612212565b91505092915050565b60006020828403121561229857612297612132565b5b600082013567ffffffffffffffff8111156122b6576122b5612137565b5b6122c284828501612254565b91505092915050565b600081519050919050565b600082825260208201905092915050565b60005b838110156123055780820151818401526020810190506122ea565b60008484015250505050565b600061231c826122cb565b61232681856122d6565b93506123368185602086016122e7565b61233f81612146565b840191505092915050565b6000819050919050565b61235d8161234a565b82525050565b600073ffffffffffffffffffffffffffffffffffffffff82169050919050565b600061238e82612363565b9050919050565b61239e81612383565b82525050565b60008115159050919050565b6123b9816123a4565b82525050565b600060c08201905081810360008301526123d98189612311565b905081810360208301526123ed8188612311565b90506123fc6040830187612354565b6124096060830186612395565b6124166080830185612354565b61242360a08301846123b0565b979650505050505050565b61243781612383565b811461244257600080fd5b50565b6000813590506124548161242e565b92915050565b6000602082840312156124705761246f612132565b5b600061247e84828501612445565b91505092915050565b600081519050919050565b600082825260208201905092915050565b6000819050602082019050919050565b600082825260208201905092915050565b60006124cf826122cb565b6124d981856124b3565b93506124e98185602086016122e7565b6124f281612146565b840191505092915050565b600061250983836124c4565b905092915050565b6000602082019050919050565b600061252982612487565b6125338185612492565b935083602082028501612545856124a3565b8060005b85811015612581578484038952815161256285826124fd565b945061256d83612511565b925060208a01995050600181019050612549565b50829750879550505050505092915050565b600060208201905081810360008301526125ad818461251e565b905092915050565b600080604083850312156125cc576125cb612132565b5b600083013567ffffffffffffffff8111156125ea576125e9612137565b5b6125f685828601612254565b925050602083013567ffffffffffffffff81111561261757612616612137565b5b61262385828601612254565b9150509250929050565b6126368161234a565b811461264157600080fd5b50565b6000813590506126538161262d565b92915050565b600080604083850312156126705761266f612132565b5b600061267e85828601612445565b925050602061268f85828601612644565b9150509250929050565b600060208201905081810360008301526126b38184612311565b905092915050565b600080604083850312156126d2576126d1612132565b5b600083013567ffffffffffffffff8111156126f0576126ef612137565b5b6126fc85828601612254565b925050602061270d85828601612445565b9150509250929050565b6127208161234a565b82525050565b61272f81612383565b82525050565b61273e816123a4565b82525050565b600060c083016000830151848203600086015261276182826124c4565b9150506020830151848203602086015261277b82826124c4565b91505060408301516127906040860182612717565b5060608301516127a36060860182612726565b5060808301516127b66080860182612717565b5060a08301516127c960a0860182612735565b508091505092915050565b600060208201905081810360008301526127ee8184612744565b905092915050565b600060208201905061280b60008301846123b0565b92915050565b600081519050919050565b600082825260208201905092915050565b6000819050602082019050919050565b6080820160008201516128536000850182612726565b5060208201516128666020850182612726565b5060408201516128796040850182612717565b50606082015161288c6060850182612717565b50505050565b600061289e838361283d565b60808301905092915050565b6000602082019050919050565b60006128c282612811565b6128cc818561281c565b93506128d78361282d565b8060005b838110156129085781516128ef8882612892565b97506128fa836128aa565b9250506001810190506128db565b5085935050505092915050565b6000602082019050818103600083015261292f81846128b7565b905092915050565b600060608201905061294c60008301866123b0565b6129596020830185612395565b6129666040830184612354565b949350505050565b6000806040838503121561298557612984612132565b5b600083013567ffffffffffffffff8111156129a3576129a2612137565b5b6129af85828601612254565b92505060206129c085828601612644565b9150509250929050565b60006080820190506129df6000830187612395565b6129ec6020830186612395565b6129f96040830185612354565b612a066060830184612354565b95945050505050565b60008060008060808587031215612a2957612a28612132565b5b600085013567ffffffffffffffff811115612a4757612a46612137565b5b612a5387828801612254565b945050602085013567ffffffffffffffff811115612a7457612a73612137565b5b612a8087828801612254565b9350506040612a9187828801612644565b9250506060612aa287828801612445565b91505092959194509250565b600080600060608486031215612ac757612ac6612132565b5b600084013567ffffffffffffffff811115612ae557612ae4612137565b5b612af186828701612254565b9350506020612b0286828701612445565b9250506040612b1386828701612644565b9150509250925092565b6000602082019050612b326000830184612395565b92915050565b7f4e487b7100000000000000000000000000000000000000000000000000000000600052602260045260246000fd5b60006002820490506001821680612b7f57607f821691505b602082108103612b9257612b91612b38565b5b50919050565b7f4e6f7420617574686f72697a6564206d616e7566616374757265720000000000600082015250565b6000612bce601b836122d6565b9150612bd982612b98565b602082019050919050565b60006020820190508181036000830152612bfd81612bc1565b9050919050565b600081905092915050565b6000612c1a826122cb565b612c248185612c04565b9350612c348185602086016122e7565b80840191505092915050565b6000612c4c8284612c0f565b915081905092915050565b7f50726f6475637420646f6573206e6f7420657869737400000000000000000000600082015250565b6000612c8d6016836122d6565b9150612c9882612c57565b602082019050919050565b60006020820190508181036000830152612cbc81612c80565b9050919050565b60008190508160005260206000209050919050565b60006020601f8301049050919050565b600082821b905092915050565b600060088302612d257fffffffffffffffffffffffffffffffffffffffffffffffffffffffffffffffff82612ce8565b612d2f8683612ce8565b95508019841693508086168417925050509392505050565b6000819050919050565b6000612d6c612d67612d628461234a565b612d47565b61234a565b9050919050565b6000819050919050565b612d8683612d51565b612d9a612d9282612d73565b848454612cf5565b825550505050565b600090565b612daf612da2565b612dba818484612d7d565b505050565b5b81811015612dde57612dd3600082612da7565b600181019050612dc0565b5050565b601f821115612e2357612df481612cc3565b612dfd84612cd8565b81016020851015612e0c578190505b612e20612e1885612cd8565b830182612dbf565b50505b505050565b600082821c905092915050565b6000612e4660001984600802612e28565b1980831691505092915050565b6000612e5f8383612e35565b9150826002028217905092915050565b612e78826122cb565b67ffffffffffffffff811115612e9157612e90612157565b5b612e9b8254612b67565b612ea6828285612de2565b600060209050601f831160018114612ed95760008415612ec7578287015190505b612ed18582612e53565b865550612f39565b601f198416612ee786612cc3565b60005b82811015612f0f57848901518255600182019150602085019450602081019050612eea565b86831015612f2c5784890151612f28601f891682612e35565b8355505b6001600288020188555050505b505050505050565b7f4e6f742074686520636f6e7472616374206f776e657200000000000000000000600082015250565b6000612f776016836122d6565b9150612f8282612f41565b602082019050919050565b60006020820190508181036000830152612fa681612f6a565b9050919050565b7f496e76616c6964206e6577206f776e6572206164647265737300000000000000600082015250565b6000612fe36019836122d6565b9150612fee82612fad565b602082019050919050565b6000602082019050818103600083015261301281612fd6565b9050919050565b7f50726f64756374206973206e6f74206163746976650000000000000000000000600082015250565b600061304f6015836122d6565b915061305a82613019565b602082019050919050565b6000602082019050818103600083015261307e81613042565b9050919050565b6000819050919050565b60006130aa6130a56130a084613085565b612d47565b61234a565b9050919050565b6130ba8161308f565b82525050565b600060a08201905081810360008301526130da8188612311565b90506130e96020830187612395565b6130f66040830186612395565b61310360608301856130b1565b6131106080830184612354565b9695505050505050565b7f50726f6475637420616c72656164792065786973747300000000000000000000600082015250565b60006131506016836122d6565b915061315b8261311a565b602082019050919050565b6000602082019050818103600083015261317f81613143565b9050919050565b600060608201905081810360008301526131a08186612311565b90506131af6020830185612395565b6131bc6040830184612354565b949350505050565b7f4e6f74207468652070726f64756374206f776e65720000000000000000000000600082015250565b60006131fa6015836122d6565b9150613205826131c4565b602082019050919050565b60006020820190508181036000830152613229816131ed565b9050919050565b600060a082019050818103600083015261324a8188612311565b90506132596020830187612395565b6132666040830186612395565b6132736060830185612354565b6132806080830184612354565b9695505050505050565b7f4e487b7100000000000000000000000000000000000000000000000000000000600052603260045260246000fd5b600081905092915050565b60008190508160005260206000209050919050565b600081546132e681612b67565b6132f081866132b9565b9450600182166000811461330b576001811461332057613353565b60ff1983168652811515820286019350613353565b613329856132c4565b60005b8381101561334b5781548189015260018201915060208101905061332c565b838801955050505b50505092915050565b600061336882846132d9565b915081905092915050565b7f4e487b7100000000000000000000000000000000000000000000000000000000600052601160045260246000fd5b60006133ad8261234a565b91506133b88361234a565b92508282039050818111156133d0576133cf613373565b5b92915050565b6000815490506133e581612b67565b9050919050565b60008190508160005260206000209050919050565b81810361340f5750506134e7565b613418826133d6565b67ffffffffffffffff81111561343157613430612157565b5b61343b8254612b67565b613446828285612de2565b6000601f8311600181146134755760008415613463578287015490505b61346d8582612e53565b8655506134e0565b601f198416613483876133ec565b965061348e86612cc3565b60005b828110156134b657848901548255600182019150600185019450602081019050613491565b868310156134d357848901546134cf601f891682612e35565b8355505b6001600288020188555050505b5050505050505b565b7f4e487b7100000000000000000000000000000000000000000000000000000000600052603160045260246000fdfea2646970667358221220f35df9a1a20b8641ee723ecce4a800c929e7834e04fc92c8ff4b85950e0803a364736f6c634300081a0033",
  "linkReferences": {},
  "deployedLinkReferences": {}
}